{
  "_format": "hh-sol-artifact-1",
  "contractName": "Market",
  "sourceName": "contracts/Marketplace.sol",
  "abi": [
    {
      "inputs": [
        {
          "internalType": "address",
          "name": "nftAddress",
          "type": "address"
        }
      ],
      "stateMutability": "nonpayable",
      "type": "constructor"
    },
    {
      "anonymous": false,
      "inputs": [
        {
          "indexed": false,
          "internalType": "address",
          "name": "_from",
          "type": "address"
        },
        {
          "indexed": false,
          "internalType": "address",
          "name": "_to",
          "type": "address"
        },
        {
          "indexed": false,
          "internalType": "uint256",
          "name": "_tokenId",
          "type": "uint256"
        }
      ],
      "name": "Transfer",
      "type": "event"
    },
    {
      "inputs": [
        {
          "internalType": "uint256",
          "name": "_listingId",
          "type": "uint256"
        },
        {
          "internalType": "address",
          "name": "buyer",
          "type": "address"
        }
      ],
      "name": "_buyToken",
      "outputs": [],
      "stateMutability": "payable",
      "type": "function"
    },
    {
      "inputs": [
        {
          "internalType": "uint256",
          "name": "_listingId",
          "type": "uint256"
        },
        {
          "internalType": "address",
          "name": "_owner",
          "type": "address"
        }
      ],
      "name": "_cancelListing",
      "outputs": [],
      "stateMutability": "nonpayable",
      "type": "function"
    },
    {
      "inputs": [
        {
          "internalType": "uint256",
          "name": "tokenId",
          "type": "uint256"
        },
        {
          "internalType": "uint256",
          "name": "price",
          "type": "uint256"
        },
        {
          "internalType": "address",
          "name": "_owner",
          "type": "address"
        }
      ],
      "name": "_createListing",
      "outputs": [
        {
          "internalType": "bool",
          "name": "",
          "type": "bool"
        }
      ],
      "stateMutability": "nonpayable",
      "type": "function"
    },
    {
      "inputs": [
        {
          "internalType": "uint256",
          "name": "_tokenId",
          "type": "uint256"
        },
        {
          "internalType": "uint256",
          "name": "_listingId",
          "type": "uint256"
        },
        {
          "internalType": "address",
          "name": "_owner",
          "type": "address"
        },
        {
          "internalType": "uint256",
          "name": "newPrice",
          "type": "uint256"
        },
        {
          "internalType": "bool",
          "name": "_isListed",
          "type": "bool"
        }
      ],
      "name": "_editListing",
      "outputs": [],
      "stateMutability": "nonpayable",
      "type": "function"
    },
    {
      "inputs": [],
      "name": "_getListings",
      "outputs": [
        {
          "components": [
            {
              "internalType": "uint256",
              "name": "_id",
              "type": "uint256"
            },
            {
              "internalType": "uint256",
              "name": "_price",
              "type": "uint256"
            },
            {
              "components": [
                {
                  "internalType": "uint256",
                  "name": "_id",
                  "type": "uint256"
                },
                {
                  "internalType": "address",
                  "name": "_owner",
                  "type": "address"
                },
                {
                  "internalType": "string",
                  "name": "_asset",
                  "type": "string"
                },
                {
                  "internalType": "string",
                  "name": "_category",
                  "type": "string"
                },
                {
                  "internalType": "string",
                  "name": "_type",
                  "type": "string"
                },
                {
                  "internalType": "string",
                  "name": "_name",
                  "type": "string"
                }
              ],
              "internalType": "struct TokenType",
              "name": "_token",
              "type": "tuple"
            },
            {
              "internalType": "bool",
              "name": "_active",
              "type": "bool"
            }
          ],
          "internalType": "struct ListingType[]",
          "name": "",
          "type": "tuple[]"
        }
      ],
      "stateMutability": "view",
      "type": "function"
    },
    {
      "inputs": [
        {
          "internalType": "uint256",
          "name": "",
          "type": "uint256"
        }
      ],
      "name": "_listing",
      "outputs": [
        {
          "internalType": "uint256",
          "name": "_id",
          "type": "uint256"
        },
        {
          "internalType": "uint256",
          "name": "_price",
          "type": "uint256"
        },
        {
          "components": [
            {
              "internalType": "uint256",
              "name": "_id",
              "type": "uint256"
            },
            {
              "internalType": "address",
              "name": "_owner",
              "type": "address"
            },
            {
              "internalType": "string",
              "name": "_asset",
              "type": "string"
            },
            {
              "internalType": "string",
              "name": "_category",
              "type": "string"
            },
            {
              "internalType": "string",
              "name": "_type",
              "type": "string"
            },
            {
              "internalType": "string",
              "name": "_name",
              "type": "string"
            }
          ],
          "internalType": "struct TokenType",
          "name": "_token",
          "type": "tuple"
        },
        {
          "internalType": "bool",
          "name": "_active",
          "type": "bool"
        }
      ],
      "stateMutability": "view",
      "type": "function"
    }
  ],
  "bytecode": "0x608060405260006001553480156200001657600080fd5b50604051620021933803806200219383398181016040528101906200003c9190620000ed565b806000806101000a81548173ffffffffffffffffffffffffffffffffffffffff021916908373ffffffffffffffffffffffffffffffffffffffff160217905550506200011f565b600080fd5b600073ffffffffffffffffffffffffffffffffffffffff82169050919050565b6000620000b58262000088565b9050919050565b620000c781620000a8565b8114620000d357600080fd5b50565b600081519050620000e781620000bc565b92915050565b60006020828403121562000106576200010562000083565b5b60006200011684828501620000d6565b91505092915050565b612064806200012f6000396000f3fe6080604052600436106100555760003560e01c8063016bfb691461005a578063346e5d08146100975780635a9d9e99146100c2578063a54297b6146100eb578063b71a925a14610107578063fc48592a14610130575b600080fd5b34801561006657600080fd5b50610081600480360381019061007c91906111fd565b610170565b60405161008e919061126b565b60405180910390f35b3480156100a357600080fd5b506100ac61056d565b6040516100b99190611506565b60405180910390f35b3480156100ce57600080fd5b506100e960048036038101906100e49190611554565b610956565b005b610105600480360381019061010091906115cf565b610b41565b005b34801561011357600080fd5b5061012e600480360381019061012991906115cf565b610ccb565b005b34801561013c57600080fd5b506101576004803603810190610152919061160f565b610dea565b60405161016794939291906116e9565b60405180910390f35b60008173ffffffffffffffffffffffffffffffffffffffff1660008054906101000a900473ffffffffffffffffffffffffffffffffffffffff1673ffffffffffffffffffffffffffffffffffffffff166338350541866040518263ffffffff1660e01b81526004016101e29190611735565b600060405180830381865afa1580156101ff573d6000803e3d6000fd5b505050506040513d6000823e3d601f19601f8201168201806040525081019061022891906119ba565b6020015173ffffffffffffffffffffffffffffffffffffffff1614610282576040517f08c379a000000000000000000000000000000000000000000000000000000000815260040161027990611a60565b60405180910390fd5b6000600190505b6001548111610383578460026000838152602001908152602001600020600201600001540361037057600015156002600083815260200190815260200160002060080160009054906101000a900460ff1615151461031c576040517f08c379a000000000000000000000000000000000000000000000000000000000815260040161031390611acc565b60405180910390fd5b83600260008381526020019081526020016000206001018190555060016002600083815260200190815260200160002060080160006101000a81548160ff0219169083151502179055506001915050610566565b808061037b90611b1b565b915050610289565b5060018060008282546103969190611b63565b925050819055506040518060800160405280600154815260200184815260200160008054906101000a900473ffffffffffffffffffffffffffffffffffffffff1673ffffffffffffffffffffffffffffffffffffffff166338350541876040518263ffffffff1660e01b815260040161040f9190611735565b600060405180830381865afa15801561042c573d6000803e3d6000fd5b505050506040513d6000823e3d601f19601f8201168201806040525081019061045591906119ba565b81526020016001151581525060026000600154815260200190815260200160002060008201518160000155602082015181600101556040820151816002016000820151816000015560208201518160010160006101000a81548173ffffffffffffffffffffffffffffffffffffffff021916908373ffffffffffffffffffffffffffffffffffffffff16021790555060408201518160020190816104f99190611da3565b50606082015181600301908161050f9190611da3565b5060808201518160040190816105259190611da3565b5060a082015181600501908161053b9190611da3565b50505060608201518160080160006101000a81548160ff021916908315150217905550905050600190505b9392505050565b6060600060015467ffffffffffffffff81111561058d5761058c611755565b5b6040519080825280602002602001820160405280156105c657816020015b6105b36110d9565b8152602001906001900390816105ab5790505b509050600080600190505b600154811161094d576002600082815260200190815260200160002060080160009054906101000a900460ff161561092b57600260008281526020019081526020016000206040518060800160405290816000820154815260200160018201548152602001600282016040518060c0016040529081600082015481526020016001820160009054906101000a900473ffffffffffffffffffffffffffffffffffffffff1673ffffffffffffffffffffffffffffffffffffffff1673ffffffffffffffffffffffffffffffffffffffff1681526020016002820180546106b590611bc6565b80601f01602080910402602001604051908101604052809291908181526020018280546106e190611bc6565b801561072e5780601f106107035761010080835404028352916020019161072e565b820191906000526020600020905b81548152906001019060200180831161071157829003601f168201915b5050505050815260200160038201805461074790611bc6565b80601f016020809104026020016040519081016040528092919081815260200182805461077390611bc6565b80156107c05780601f10610795576101008083540402835291602001916107c0565b820191906000526020600020905b8154815290600101906020018083116107a357829003601f168201915b505050505081526020016004820180546107d990611bc6565b80601f016020809104026020016040519081016040528092919081815260200182805461080590611bc6565b80156108525780601f1061082757610100808354040283529160200191610852565b820191906000526020600020905b81548152906001019060200180831161083557829003601f168201915b5050505050815260200160058201805461086b90611bc6565b80601f016020809104026020016040519081016040528092919081815260200182805461089790611bc6565b80156108e45780601f106108b9576101008083540402835291602001916108e4565b820191906000526020600020905b8154815290600101906020018083116108c757829003601f168201915b50505050508152505081526020016008820160009054906101000a900460ff16151515158152505083838151811061091f5761091e611e75565b5b60200260200101819052505b6001826109389190611b63565b9150808061094590611b1b565b9150506105d1565b50819250505090565b60006002600086815260200190815260200160002090508060080160009054906101000a900460ff166109be576040517f08c379a00000000000000000000000000000000000000000000000000000000081526004016109b590611ef0565b60405180910390fd5b8373ffffffffffffffffffffffffffffffffffffffff1660008054906101000a900473ffffffffffffffffffffffffffffffffffffffff1673ffffffffffffffffffffffffffffffffffffffff166338350541886040518263ffffffff1660e01b8152600401610a2e9190611735565b600060405180830381865afa158015610a4b573d6000803e3d6000fd5b505050506040513d6000823e3d601f19601f82011682018060405250810190610a7491906119ba565b6020015173ffffffffffffffffffffffffffffffffffffffff1614610ace576040517f08c379a0000000000000000000000000000000000000000000000000000000008152600401610ac590611f5c565b60405180910390fd5b828160010181905550818160080160006101000a81548160ff021916908315150217905550838160020160010160006101000a81548173ffffffffffffffffffffffffffffffffffffffff021916908373ffffffffffffffffffffffffffffffffffffffff160217905550505050505050565b60006002600084815260200190815260200160002090508060080160009054906101000a900460ff16610ba9576040517f08c379a0000000000000000000000000000000000000000000000000000000008152600401610ba090611ef0565b60405180910390fd5b8060010154341015610bf0576040517f08c379a0000000000000000000000000000000000000000000000000000000008152600401610be790611fc8565b60405180910390fd5b60008054906101000a900473ffffffffffffffffffffffffffffffffffffffff1673ffffffffffffffffffffffffffffffffffffffff1663cb7125358260020160010160009054906101000a900473ffffffffffffffffffffffffffffffffffffffff168484600201600001546040518463ffffffff1660e01b8152600401610c7b93929190611ff7565b600060405180830381600087803b158015610c9557600080fd5b505af1158015610ca9573d6000803e3d6000fd5b50505050610cc68160020160000154848484600101546000610956565b505050565b60006002600084815260200190815260200160002090508060080160009054906101000a900460ff16610d33576040517f08c379a0000000000000000000000000000000000000000000000000000000008152600401610d2a90611ef0565b60405180910390fd5b8173ffffffffffffffffffffffffffffffffffffffff168160020160010160009054906101000a900473ffffffffffffffffffffffffffffffffffffffff1673ffffffffffffffffffffffffffffffffffffffff1614610dc8576040517f08c379a0000000000000000000000000000000000000000000000000000000008152600401610dbf90611f5c565b60405180910390fd5b60008160080160006101000a81548160ff021916908315150217905550505050565b6002602052806000526040600020600091509050806000015490806001015490806002016040518060c0016040529081600082015481526020016001820160009054906101000a900473ffffffffffffffffffffffffffffffffffffffff1673ffffffffffffffffffffffffffffffffffffffff1673ffffffffffffffffffffffffffffffffffffffff168152602001600282018054610e8990611bc6565b80601f0160208091040260200160405190810160405280929190818152602001828054610eb590611bc6565b8015610f025780601f10610ed757610100808354040283529160200191610f02565b820191906000526020600020905b815481529060010190602001808311610ee557829003601f168201915b50505050508152602001600382018054610f1b90611bc6565b80601f0160208091040260200160405190810160405280929190818152602001828054610f4790611bc6565b8015610f945780601f10610f6957610100808354040283529160200191610f94565b820191906000526020600020905b815481529060010190602001808311610f7757829003601f168201915b50505050508152602001600482018054610fad90611bc6565b80601f0160208091040260200160405190810160405280929190818152602001828054610fd990611bc6565b80156110265780601f10610ffb57610100808354040283529160200191611026565b820191906000526020600020905b81548152906001019060200180831161100957829003601f168201915b5050505050815260200160058201805461103f90611bc6565b80601f016020809104026020016040519081016040528092919081815260200182805461106b90611bc6565b80156110b85780601f1061108d576101008083540402835291602001916110b8565b820191906000526020600020905b81548152906001019060200180831161109b57829003601f168201915b505050505081525050908060080160009054906101000a900460ff16905084565b604051806080016040528060008152602001600081526020016110fa611109565b81526020016000151581525090565b6040518060c0016040528060008152602001600073ffffffffffffffffffffffffffffffffffffffff168152602001606081526020016060815260200160608152602001606081525090565b6000604051905090565b600080fd5b600080fd5b6000819050919050565b61117c81611169565b811461118757600080fd5b50565b60008135905061119981611173565b92915050565b600073ffffffffffffffffffffffffffffffffffffffff82169050919050565b60006111ca8261119f565b9050919050565b6111da816111bf565b81146111e557600080fd5b50565b6000813590506111f7816111d1565b92915050565b6000806000606084860312156112165761121561115f565b5b60006112248682870161118a565b93505060206112358682870161118a565b9250506040611246868287016111e8565b9150509250925092565b60008115159050919050565b61126581611250565b82525050565b6000602082019050611280600083018461125c565b92915050565b600081519050919050565b600082825260208201905092915050565b6000819050602082019050919050565b6112bb81611169565b82525050565b6112ca816111bf565b82525050565b600081519050919050565b600082825260208201905092915050565b60005b8381101561130a5780820151818401526020810190506112ef565b60008484015250505050565b6000601f19601f8301169050919050565b6000611332826112d0565b61133c81856112db565b935061134c8185602086016112ec565b61135581611316565b840191505092915050565b600060c08301600083015161137860008601826112b2565b50602083015161138b60208601826112c1565b50604083015184820360408601526113a38282611327565b915050606083015184820360608601526113bd8282611327565b915050608083015184820360808601526113d78282611327565b91505060a083015184820360a08601526113f18282611327565b9150508091505092915050565b61140781611250565b82525050565b600060808301600083015161142560008601826112b2565b50602083015161143860208601826112b2565b50604083015184820360408601526114508282611360565b915050606083015161146560608601826113fe565b508091505092915050565b600061147c838361140d565b905092915050565b6000602082019050919050565b600061149c82611286565b6114a68185611291565b9350836020820285016114b8856112a2565b8060005b858110156114f457848403895281516114d58582611470565b94506114e083611484565b925060208a019950506001810190506114bc565b50829750879550505050505092915050565b600060208201905081810360008301526115208184611491565b905092915050565b61153181611250565b811461153c57600080fd5b50565b60008135905061154e81611528565b92915050565b600080600080600060a086880312156115705761156f61115f565b5b600061157e8882890161118a565b955050602061158f8882890161118a565b94505060406115a0888289016111e8565b93505060606115b18882890161118a565b92505060806115c28882890161153f565b9150509295509295909350565b600080604083850312156115e6576115e561115f565b5b60006115f48582860161118a565b9250506020611605858286016111e8565b9150509250929050565b6000602082840312156116255761162461115f565b5b60006116338482850161118a565b91505092915050565b61164581611169565b82525050565b600060c08301600083015161166360008601826112b2565b50602083015161167660208601826112c1565b506040830151848203604086015261168e8282611327565b915050606083015184820360608601526116a88282611327565b915050608083015184820360808601526116c28282611327565b91505060a083015184820360a08601526116dc8282611327565b9150508091505092915050565b60006080820190506116fe600083018761163c565b61170b602083018661163c565b818103604083015261171d818561164b565b905061172c606083018461125c565b95945050505050565b600060208201905061174a600083018461163c565b92915050565b600080fd5b7f4e487b7100000000000000000000000000000000000000000000000000000000600052604160045260246000fd5b61178d82611316565b810181811067ffffffffffffffff821117156117ac576117ab611755565b5b80604052505050565b60006117bf611155565b90506117cb8282611784565b919050565b600080fd5b6000815190506117e481611173565b92915050565b6000815190506117f9816111d1565b92915050565b600080fd5b600080fd5b600067ffffffffffffffff82111561182457611823611755565b5b61182d82611316565b9050602081019050919050565b600061184d61184884611809565b6117b5565b90508281526020810184848401111561186957611868611804565b5b6118748482856112ec565b509392505050565b600082601f830112611891576118906117ff565b5b81516118a184826020860161183a565b91505092915050565b600060c082840312156118c0576118bf611750565b5b6118ca60c06117b5565b905060006118da848285016117d5565b60008301525060206118ee848285016117ea565b602083015250604082015167ffffffffffffffff811115611912576119116117d0565b5b61191e8482850161187c565b604083015250606082015167ffffffffffffffff811115611942576119416117d0565b5b61194e8482850161187c565b606083015250608082015167ffffffffffffffff811115611972576119716117d0565b5b61197e8482850161187c565b60808301525060a082015167ffffffffffffffff8111156119a2576119a16117d0565b5b6119ae8482850161187c565b60a08301525092915050565b6000602082840312156119d0576119cf61115f565b5b600082015167ffffffffffffffff8111156119ee576119ed611164565b5b6119fa848285016118aa565b91505092915050565b600082825260208201905092915050565b7f4e6f20546f6b656e204d696e7465642100000000000000000000000000000000600082015250565b6000611a4a601083611a03565b9150611a5582611a14565b602082019050919050565b60006020820190508181036000830152611a7981611a3d565b9050919050565b7f546f6b656e20616c7265616479206c6973746564000000000000000000000000600082015250565b6000611ab6601483611a03565b9150611ac182611a80565b602082019050919050565b60006020820190508181036000830152611ae581611aa9565b9050919050565b7f4e487b7100000000000000000000000000000000000000000000000000000000600052601160045260246000fd5b6000611b2682611169565b91507fffffffffffffffffffffffffffffffffffffffffffffffffffffffffffffffff8203611b5857611b57611aec565b5b600182019050919050565b6000611b6e82611169565b9150611b7983611169565b9250828201905080821115611b9157611b90611aec565b5b92915050565b7f4e487b7100000000000000000000000000000000000000000000000000000000600052602260045260246000fd5b60006002820490506001821680611bde57607f821691505b602082108103611bf157611bf0611b97565b5b50919050565b60008190508160005260206000209050919050565b60006020601f8301049050919050565b600082821b905092915050565b600060088302611c597fffffffffffffffffffffffffffffffffffffffffffffffffffffffffffffffff82611c1c565b611c638683611c1c565b95508019841693508086168417925050509392505050565b6000819050919050565b6000611ca0611c9b611c9684611169565b611c7b565b611169565b9050919050565b6000819050919050565b611cba83611c85565b611cce611cc682611ca7565b848454611c29565b825550505050565b600090565b611ce3611cd6565b611cee818484611cb1565b505050565b5b81811015611d1257611d07600082611cdb565b600181019050611cf4565b5050565b601f821115611d5757611d2881611bf7565b611d3184611c0c565b81016020851015611d40578190505b611d54611d4c85611c0c565b830182611cf3565b50505b505050565b600082821c905092915050565b6000611d7a60001984600802611d5c565b1980831691505092915050565b6000611d938383611d69565b9150826002028217905092915050565b611dac826112d0565b67ffffffffffffffff811115611dc557611dc4611755565b5b611dcf8254611bc6565b611dda828285611d16565b600060209050601f831160018114611e0d5760008415611dfb578287015190505b611e058582611d87565b865550611e6d565b601f198416611e1b86611bf7565b60005b82811015611e4357848901518255600182019150602085019450602081019050611e1e565b86831015611e605784890151611e5c601f891682611d69565b8355505b6001600288020188555050505b505050505050565b7f4e487b7100000000000000000000000000000000000000000000000000000000600052603260045260246000fd5b7f4e4654206e6f74204c6973746564000000000000000000000000000000000000600082015250565b6000611eda600e83611a03565b9150611ee582611ea4565b602082019050919050565b60006020820190508181036000830152611f0981611ecd565b9050919050565b7f596f7520617265206e6f74207468652073656c6c657200000000000000000000600082015250565b6000611f46601683611a03565b9150611f5182611f10565b602082019050919050565b60006020820190508181036000830152611f7581611f39565b9050919050565b7f496e73756666696369656e742042616c616e6365000000000000000000000000600082015250565b6000611fb2601483611a03565b9150611fbd82611f7c565b602082019050919050565b60006020820190508181036000830152611fe181611fa5565b9050919050565b611ff1816111bf565b82525050565b600060608201905061200c6000830186611fe8565b6120196020830185611fe8565b612026604083018461163c565b94935050505056fea26469706673582212200d65d02a19451b09947c5fe31c7ac14b3cca45f1b17d4b31b0b32d07a8b1ff4764736f6c63430008110033",
  "linkReferences": {},
  "deployedLinkReferences": {}
}