{
  "_format": "hh-sol-artifact-1",
  "contractName": "Market",
  "sourceName": "contracts/Marketplace.sol",
  "abi": [
    {
      "inputs": [
        {
          "internalType": "address",
          "name": "nftAddress",
          "type": "address"
        }
      ],
      "stateMutability": "nonpayable",
      "type": "constructor"
    },
    {
      "anonymous": false,
      "inputs": [
        {
          "indexed": false,
          "internalType": "address",
          "name": "_from",
          "type": "address"
        },
        {
          "indexed": false,
          "internalType": "address",
          "name": "_to",
          "type": "address"
        },
        {
          "indexed": false,
          "internalType": "uint256",
          "name": "_tokenId",
          "type": "uint256"
        }
      ],
      "name": "Transfer",
      "type": "event"
    },
    {
      "inputs": [
        {
          "internalType": "uint256",
          "name": "_listingId",
          "type": "uint256"
        },
        {
          "internalType": "address",
          "name": "buyer",
          "type": "address"
        }
      ],
      "name": "_buyToken",
      "outputs": [],
      "stateMutability": "payable",
      "type": "function"
    },
    {
      "inputs": [
        {
          "internalType": "uint256",
          "name": "_listingId",
          "type": "uint256"
        },
        {
          "internalType": "address",
          "name": "_owner",
          "type": "address"
        }
      ],
      "name": "_cancelListing",
      "outputs": [],
      "stateMutability": "nonpayable",
      "type": "function"
    },
    {
      "inputs": [
        {
          "internalType": "uint256",
          "name": "tokenId",
          "type": "uint256"
        },
        {
          "internalType": "uint256",
          "name": "price",
          "type": "uint256"
        },
        {
          "internalType": "address",
          "name": "_owner",
          "type": "address"
        }
      ],
      "name": "_createListing",
      "outputs": [
        {
          "internalType": "bool",
          "name": "",
          "type": "bool"
        }
      ],
      "stateMutability": "nonpayable",
      "type": "function"
    },
    {
      "inputs": [
        {
          "internalType": "uint256",
          "name": "_tokenId",
          "type": "uint256"
        },
        {
          "internalType": "uint256",
          "name": "_listingId",
          "type": "uint256"
        },
        {
          "internalType": "address",
          "name": "_owner",
          "type": "address"
        },
        {
          "internalType": "uint256",
          "name": "newPrice",
          "type": "uint256"
        },
        {
          "internalType": "bool",
          "name": "_isListed",
          "type": "bool"
        }
      ],
      "name": "_editListing",
      "outputs": [],
      "stateMutability": "nonpayable",
      "type": "function"
    },
    {
      "inputs": [],
      "name": "_getListings",
      "outputs": [
        {
          "components": [
            {
              "internalType": "uint256",
              "name": "_id",
              "type": "uint256"
            },
            {
              "internalType": "uint256",
              "name": "_price",
              "type": "uint256"
            },
            {
              "components": [
                {
                  "internalType": "uint256",
                  "name": "_id",
                  "type": "uint256"
                },
                {
                  "internalType": "address",
                  "name": "_owner",
                  "type": "address"
                },
                {
                  "internalType": "string",
                  "name": "_asset",
                  "type": "string"
                },
                {
                  "internalType": "string",
                  "name": "_category",
                  "type": "string"
                },
                {
                  "internalType": "string",
                  "name": "_type",
                  "type": "string"
                },
                {
                  "internalType": "string",
                  "name": "_name",
                  "type": "string"
                }
              ],
              "internalType": "struct TokenType",
              "name": "_token",
              "type": "tuple"
            },
            {
              "internalType": "bool",
              "name": "_active",
              "type": "bool"
            }
          ],
          "internalType": "struct ListingType[]",
          "name": "",
          "type": "tuple[]"
        }
      ],
      "stateMutability": "view",
      "type": "function"
    },
    {
      "inputs": [
        {
          "internalType": "uint256",
          "name": "",
          "type": "uint256"
        }
      ],
      "name": "_listing",
      "outputs": [
        {
          "internalType": "uint256",
          "name": "_id",
          "type": "uint256"
        },
        {
          "internalType": "uint256",
          "name": "_price",
          "type": "uint256"
        },
        {
          "components": [
            {
              "internalType": "uint256",
              "name": "_id",
              "type": "uint256"
            },
            {
              "internalType": "address",
              "name": "_owner",
              "type": "address"
            },
            {
              "internalType": "string",
              "name": "_asset",
              "type": "string"
            },
            {
              "internalType": "string",
              "name": "_category",
              "type": "string"
            },
            {
              "internalType": "string",
              "name": "_type",
              "type": "string"
            },
            {
              "internalType": "string",
              "name": "_name",
              "type": "string"
            }
          ],
          "internalType": "struct TokenType",
          "name": "_token",
          "type": "tuple"
        },
        {
          "internalType": "bool",
          "name": "_active",
          "type": "bool"
        }
      ],
      "stateMutability": "view",
      "type": "function"
    }
  ],
  "bytecode": "0x608060405260006001553480156200001657600080fd5b50604051620021843803806200218483398181016040528101906200003c9190620000ed565b806000806101000a81548173ffffffffffffffffffffffffffffffffffffffff021916908373ffffffffffffffffffffffffffffffffffffffff160217905550506200011f565b600080fd5b600073ffffffffffffffffffffffffffffffffffffffff82169050919050565b6000620000b58262000088565b9050919050565b620000c781620000a8565b8114620000d357600080fd5b50565b600081519050620000e781620000bc565b92915050565b60006020828403121562000106576200010562000083565b5b60006200011684828501620000d6565b91505092915050565b612055806200012f6000396000f3fe6080604052600436106100555760003560e01c8063016bfb691461005a578063346e5d08146100975780635a9d9e99146100c2578063a54297b6146100eb578063b71a925a14610107578063fc48592a14610130575b600080fd5b34801561006657600080fd5b50610081600480360381019061007c91906111ee565b610170565b60405161008e919061125c565b60405180910390f35b3480156100a357600080fd5b506100ac61056d565b6040516100b991906114f7565b60405180910390f35b3480156100ce57600080fd5b506100e960048036038101906100e49190611545565b610947565b005b610105600480360381019061010091906115c0565b610b32565b005b34801561011357600080fd5b5061012e600480360381019061012991906115c0565b610cbc565b005b34801561013c57600080fd5b5061015760048036038101906101529190611600565b610ddb565b60405161016794939291906116da565b60405180910390f35b60008173ffffffffffffffffffffffffffffffffffffffff1660008054906101000a900473ffffffffffffffffffffffffffffffffffffffff1673ffffffffffffffffffffffffffffffffffffffff166338350541866040518263ffffffff1660e01b81526004016101e29190611726565b600060405180830381865afa1580156101ff573d6000803e3d6000fd5b505050506040513d6000823e3d601f19601f8201168201806040525081019061022891906119ab565b6020015173ffffffffffffffffffffffffffffffffffffffff1614610282576040517f08c379a000000000000000000000000000000000000000000000000000000000815260040161027990611a51565b60405180910390fd5b6000600190505b6001548111610383578460026000838152602001908152602001600020600201600001540361037057600015156002600083815260200190815260200160002060080160009054906101000a900460ff1615151461031c576040517f08c379a000000000000000000000000000000000000000000000000000000000815260040161031390611abd565b60405180910390fd5b83600260008381526020019081526020016000206001018190555060016002600083815260200190815260200160002060080160006101000a81548160ff0219169083151502179055506001915050610566565b808061037b90611b0c565b915050610289565b5060018060008282546103969190611b54565b925050819055506040518060800160405280600154815260200184815260200160008054906101000a900473ffffffffffffffffffffffffffffffffffffffff1673ffffffffffffffffffffffffffffffffffffffff166338350541876040518263ffffffff1660e01b815260040161040f9190611726565b600060405180830381865afa15801561042c573d6000803e3d6000fd5b505050506040513d6000823e3d601f19601f8201168201806040525081019061045591906119ab565b81526020016001151581525060026000600154815260200190815260200160002060008201518160000155602082015181600101556040820151816002016000820151816000015560208201518160010160006101000a81548173ffffffffffffffffffffffffffffffffffffffff021916908373ffffffffffffffffffffffffffffffffffffffff16021790555060408201518160020190816104f99190611d94565b50606082015181600301908161050f9190611d94565b5060808201518160040190816105259190611d94565b5060a082015181600501908161053b9190611d94565b50505060608201518160080160006101000a81548160ff021916908315150217905550905050600190505b9392505050565b6060600060015467ffffffffffffffff81111561058d5761058c611746565b5b6040519080825280602002602001820160405280156105c657816020015b6105b36110ca565b8152602001906001900390816105ab5790505b509050600080600190505b600154811161093e576002600082815260200190815260200160002060080160009054906101000a900460ff161561092b57600260008281526020019081526020016000206040518060800160405290816000820154815260200160018201548152602001600282016040518060c0016040529081600082015481526020016001820160009054906101000a900473ffffffffffffffffffffffffffffffffffffffff1673ffffffffffffffffffffffffffffffffffffffff1673ffffffffffffffffffffffffffffffffffffffff1681526020016002820180546106b590611bb7565b80601f01602080910402602001604051908101604052809291908181526020018280546106e190611bb7565b801561072e5780601f106107035761010080835404028352916020019161072e565b820191906000526020600020905b81548152906001019060200180831161071157829003601f168201915b5050505050815260200160038201805461074790611bb7565b80601f016020809104026020016040519081016040528092919081815260200182805461077390611bb7565b80156107c05780601f10610795576101008083540402835291602001916107c0565b820191906000526020600020905b8154815290600101906020018083116107a357829003601f168201915b505050505081526020016004820180546107d990611bb7565b80601f016020809104026020016040519081016040528092919081815260200182805461080590611bb7565b80156108525780601f1061082757610100808354040283529160200191610852565b820191906000526020600020905b81548152906001019060200180831161083557829003601f168201915b5050505050815260200160058201805461086b90611bb7565b80601f016020809104026020016040519081016040528092919081815260200182805461089790611bb7565b80156108e45780601f106108b9576101008083540402835291602001916108e4565b820191906000526020600020905b8154815290600101906020018083116108c757829003601f168201915b50505050508152505081526020016008820160009054906101000a900460ff16151515158152505083838151811061091f5761091e611e66565b5b60200260200101819052505b808061093690611b0c565b9150506105d1565b50819250505090565b60006002600086815260200190815260200160002090508060080160009054906101000a900460ff166109af576040517f08c379a00000000000000000000000000000000000000000000000000000000081526004016109a690611ee1565b60405180910390fd5b8373ffffffffffffffffffffffffffffffffffffffff1660008054906101000a900473ffffffffffffffffffffffffffffffffffffffff1673ffffffffffffffffffffffffffffffffffffffff166338350541886040518263ffffffff1660e01b8152600401610a1f9190611726565b600060405180830381865afa158015610a3c573d6000803e3d6000fd5b505050506040513d6000823e3d601f19601f82011682018060405250810190610a6591906119ab565b6020015173ffffffffffffffffffffffffffffffffffffffff1614610abf576040517f08c379a0000000000000000000000000000000000000000000000000000000008152600401610ab690611f4d565b60405180910390fd5b828160010181905550818160080160006101000a81548160ff021916908315150217905550838160020160010160006101000a81548173ffffffffffffffffffffffffffffffffffffffff021916908373ffffffffffffffffffffffffffffffffffffffff160217905550505050505050565b60006002600084815260200190815260200160002090508060080160009054906101000a900460ff16610b9a576040517f08c379a0000000000000000000000000000000000000000000000000000000008152600401610b9190611ee1565b60405180910390fd5b8060010154341015610be1576040517f08c379a0000000000000000000000000000000000000000000000000000000008152600401610bd890611fb9565b60405180910390fd5b60008054906101000a900473ffffffffffffffffffffffffffffffffffffffff1673ffffffffffffffffffffffffffffffffffffffff1663cb7125358260020160010160009054906101000a900473ffffffffffffffffffffffffffffffffffffffff168484600201600001546040518463ffffffff1660e01b8152600401610c6c93929190611fe8565b600060405180830381600087803b158015610c8657600080fd5b505af1158015610c9a573d6000803e3d6000fd5b50505050610cb78160020160000154848484600101546000610947565b505050565b60006002600084815260200190815260200160002090508060080160009054906101000a900460ff16610d24576040517f08c379a0000000000000000000000000000000000000000000000000000000008152600401610d1b90611ee1565b60405180910390fd5b8173ffffffffffffffffffffffffffffffffffffffff168160020160010160009054906101000a900473ffffffffffffffffffffffffffffffffffffffff1673ffffffffffffffffffffffffffffffffffffffff1614610db9576040517f08c379a0000000000000000000000000000000000000000000000000000000008152600401610db090611f4d565b60405180910390fd5b60008160080160006101000a81548160ff021916908315150217905550505050565b6002602052806000526040600020600091509050806000015490806001015490806002016040518060c0016040529081600082015481526020016001820160009054906101000a900473ffffffffffffffffffffffffffffffffffffffff1673ffffffffffffffffffffffffffffffffffffffff1673ffffffffffffffffffffffffffffffffffffffff168152602001600282018054610e7a90611bb7565b80601f0160208091040260200160405190810160405280929190818152602001828054610ea690611bb7565b8015610ef35780601f10610ec857610100808354040283529160200191610ef3565b820191906000526020600020905b815481529060010190602001808311610ed657829003601f168201915b50505050508152602001600382018054610f0c90611bb7565b80601f0160208091040260200160405190810160405280929190818152602001828054610f3890611bb7565b8015610f855780601f10610f5a57610100808354040283529160200191610f85565b820191906000526020600020905b815481529060010190602001808311610f6857829003601f168201915b50505050508152602001600482018054610f9e90611bb7565b80601f0160208091040260200160405190810160405280929190818152602001828054610fca90611bb7565b80156110175780601f10610fec57610100808354040283529160200191611017565b820191906000526020600020905b815481529060010190602001808311610ffa57829003601f168201915b5050505050815260200160058201805461103090611bb7565b80601f016020809104026020016040519081016040528092919081815260200182805461105c90611bb7565b80156110a95780601f1061107e576101008083540402835291602001916110a9565b820191906000526020600020905b81548152906001019060200180831161108c57829003601f168201915b505050505081525050908060080160009054906101000a900460ff16905084565b604051806080016040528060008152602001600081526020016110eb6110fa565b81526020016000151581525090565b6040518060c0016040528060008152602001600073ffffffffffffffffffffffffffffffffffffffff168152602001606081526020016060815260200160608152602001606081525090565b6000604051905090565b600080fd5b600080fd5b6000819050919050565b61116d8161115a565b811461117857600080fd5b50565b60008135905061118a81611164565b92915050565b600073ffffffffffffffffffffffffffffffffffffffff82169050919050565b60006111bb82611190565b9050919050565b6111cb816111b0565b81146111d657600080fd5b50565b6000813590506111e8816111c2565b92915050565b60008060006060848603121561120757611206611150565b5b60006112158682870161117b565b93505060206112268682870161117b565b9250506040611237868287016111d9565b9150509250925092565b60008115159050919050565b61125681611241565b82525050565b6000602082019050611271600083018461124d565b92915050565b600081519050919050565b600082825260208201905092915050565b6000819050602082019050919050565b6112ac8161115a565b82525050565b6112bb816111b0565b82525050565b600081519050919050565b600082825260208201905092915050565b60005b838110156112fb5780820151818401526020810190506112e0565b60008484015250505050565b6000601f19601f8301169050919050565b6000611323826112c1565b61132d81856112cc565b935061133d8185602086016112dd565b61134681611307565b840191505092915050565b600060c08301600083015161136960008601826112a3565b50602083015161137c60208601826112b2565b50604083015184820360408601526113948282611318565b915050606083015184820360608601526113ae8282611318565b915050608083015184820360808601526113c88282611318565b91505060a083015184820360a08601526113e28282611318565b9150508091505092915050565b6113f881611241565b82525050565b600060808301600083015161141660008601826112a3565b50602083015161142960208601826112a3565b50604083015184820360408601526114418282611351565b915050606083015161145660608601826113ef565b508091505092915050565b600061146d83836113fe565b905092915050565b6000602082019050919050565b600061148d82611277565b6114978185611282565b9350836020820285016114a985611293565b8060005b858110156114e557848403895281516114c68582611461565b94506114d183611475565b925060208a019950506001810190506114ad565b50829750879550505050505092915050565b600060208201905081810360008301526115118184611482565b905092915050565b61152281611241565b811461152d57600080fd5b50565b60008135905061153f81611519565b92915050565b600080600080600060a0868803121561156157611560611150565b5b600061156f8882890161117b565b95505060206115808882890161117b565b9450506040611591888289016111d9565b93505060606115a28882890161117b565b92505060806115b388828901611530565b9150509295509295909350565b600080604083850312156115d7576115d6611150565b5b60006115e58582860161117b565b92505060206115f6858286016111d9565b9150509250929050565b60006020828403121561161657611615611150565b5b60006116248482850161117b565b91505092915050565b6116368161115a565b82525050565b600060c08301600083015161165460008601826112a3565b50602083015161166760208601826112b2565b506040830151848203604086015261167f8282611318565b915050606083015184820360608601526116998282611318565b915050608083015184820360808601526116b38282611318565b91505060a083015184820360a08601526116cd8282611318565b9150508091505092915050565b60006080820190506116ef600083018761162d565b6116fc602083018661162d565b818103604083015261170e818561163c565b905061171d606083018461124d565b95945050505050565b600060208201905061173b600083018461162d565b92915050565b600080fd5b7f4e487b7100000000000000000000000000000000000000000000000000000000600052604160045260246000fd5b61177e82611307565b810181811067ffffffffffffffff8211171561179d5761179c611746565b5b80604052505050565b60006117b0611146565b90506117bc8282611775565b919050565b600080fd5b6000815190506117d581611164565b92915050565b6000815190506117ea816111c2565b92915050565b600080fd5b600080fd5b600067ffffffffffffffff82111561181557611814611746565b5b61181e82611307565b9050602081019050919050565b600061183e611839846117fa565b6117a6565b90508281526020810184848401111561185a576118596117f5565b5b6118658482856112dd565b509392505050565b600082601f830112611882576118816117f0565b5b815161189284826020860161182b565b91505092915050565b600060c082840312156118b1576118b0611741565b5b6118bb60c06117a6565b905060006118cb848285016117c6565b60008301525060206118df848285016117db565b602083015250604082015167ffffffffffffffff811115611903576119026117c1565b5b61190f8482850161186d565b604083015250606082015167ffffffffffffffff811115611933576119326117c1565b5b61193f8482850161186d565b606083015250608082015167ffffffffffffffff811115611963576119626117c1565b5b61196f8482850161186d565b60808301525060a082015167ffffffffffffffff811115611993576119926117c1565b5b61199f8482850161186d565b60a08301525092915050565b6000602082840312156119c1576119c0611150565b5b600082015167ffffffffffffffff8111156119df576119de611155565b5b6119eb8482850161189b565b91505092915050565b600082825260208201905092915050565b7f4e6f20546f6b656e204d696e7465642100000000000000000000000000000000600082015250565b6000611a3b6010836119f4565b9150611a4682611a05565b602082019050919050565b60006020820190508181036000830152611a6a81611a2e565b9050919050565b7f546f6b656e20616c7265616479206c6973746564000000000000000000000000600082015250565b6000611aa76014836119f4565b9150611ab282611a71565b602082019050919050565b60006020820190508181036000830152611ad681611a9a565b9050919050565b7f4e487b7100000000000000000000000000000000000000000000000000000000600052601160045260246000fd5b6000611b178261115a565b91507fffffffffffffffffffffffffffffffffffffffffffffffffffffffffffffffff8203611b4957611b48611add565b5b600182019050919050565b6000611b5f8261115a565b9150611b6a8361115a565b9250828201905080821115611b8257611b81611add565b5b92915050565b7f4e487b7100000000000000000000000000000000000000000000000000000000600052602260045260246000fd5b60006002820490506001821680611bcf57607f821691505b602082108103611be257611be1611b88565b5b50919050565b60008190508160005260206000209050919050565b60006020601f8301049050919050565b600082821b905092915050565b600060088302611c4a7fffffffffffffffffffffffffffffffffffffffffffffffffffffffffffffffff82611c0d565b611c548683611c0d565b95508019841693508086168417925050509392505050565b6000819050919050565b6000611c91611c8c611c878461115a565b611c6c565b61115a565b9050919050565b6000819050919050565b611cab83611c76565b611cbf611cb782611c98565b848454611c1a565b825550505050565b600090565b611cd4611cc7565b611cdf818484611ca2565b505050565b5b81811015611d0357611cf8600082611ccc565b600181019050611ce5565b5050565b601f821115611d4857611d1981611be8565b611d2284611bfd565b81016020851015611d31578190505b611d45611d3d85611bfd565b830182611ce4565b50505b505050565b600082821c905092915050565b6000611d6b60001984600802611d4d565b1980831691505092915050565b6000611d848383611d5a565b9150826002028217905092915050565b611d9d826112c1565b67ffffffffffffffff811115611db657611db5611746565b5b611dc08254611bb7565b611dcb828285611d07565b600060209050601f831160018114611dfe5760008415611dec578287015190505b611df68582611d78565b865550611e5e565b601f198416611e0c86611be8565b60005b82811015611e3457848901518255600182019150602085019450602081019050611e0f565b86831015611e515784890151611e4d601f891682611d5a565b8355505b6001600288020188555050505b505050505050565b7f4e487b7100000000000000000000000000000000000000000000000000000000600052603260045260246000fd5b7f4e4654206e6f74204c6973746564000000000000000000000000000000000000600082015250565b6000611ecb600e836119f4565b9150611ed682611e95565b602082019050919050565b60006020820190508181036000830152611efa81611ebe565b9050919050565b7f596f7520617265206e6f74207468652073656c6c657200000000000000000000600082015250565b6000611f376016836119f4565b9150611f4282611f01565b602082019050919050565b60006020820190508181036000830152611f6681611f2a565b9050919050565b7f496e73756666696369656e742042616c616e6365000000000000000000000000600082015250565b6000611fa36014836119f4565b9150611fae82611f6d565b602082019050919050565b60006020820190508181036000830152611fd281611f96565b9050919050565b611fe2816111b0565b82525050565b6000606082019050611ffd6000830186611fd9565b61200a6020830185611fd9565b612017604083018461162d565b94935050505056fea2646970667358221220978e3d14f30b5aa861e03f855b832827926ae4eb782d3ea085d098677b9d987a64736f6c63430008110033",
  "linkReferences": {},
  "deployedLinkReferences": {}
}